:020000023000CC
:10E0000077C000009DC000009BC0000099C00000C8
:10E0100097C0000095C0000093C0000091C00000B0
:10E020008FC000008DC000008BC0000089C00000C0
:10E0300087C0000085C0000083C0000081C00000D0
:10E040007FC000007DC000007BC0000079C00000E0
:10E0500077C0000075C0000073C0000071C00000F0
:10E060006FC000006DC000006BC0000069C0000000
:10E0700067C0000065C0000063C0000061C0000010
:10E080005FC000005DC000005BC0000059C0000020
:10E0900057C0000055C0000053C0000051C0000030
:10E0A0004FC000004DC000004BC0000049C0000040
:10E0B00047C0000045C0000043C0000041C0000050
:10E0C0003FC000003DC000003BC0000039C0000060
:10E0D00037C0000035C0000033C0000031C0000070
:10E0E0002FC0000041546D65676132353630000045
:10E0F00011241FBECFEFD1E2DEBFCDBF01E00CBFC8
:10E1000012E0A0E0B2E0E2EDF7EF03E00BBF02C0E7
:10E1100007900D92A231B107D9F71BBE13E0A2E11F
:10E12000B2E001C01D92AD34B107E1F7BCD60D9449
:10E13000E7FB01E20EBF0FEF0DBF11241FBEB3C6F8
:10E140005FCF8093C6008091C00086FFFCCF809196
:10E15000C00080648093C000089520E030E008C0D3
:10E16000EFECF7E03197F1F700C000002F5F3F4F71
:10E1700028173907A9F70895CF93DF93EC01C60F4D
:10E18000D11DCE01A0E0B0E02196ABBFFC0187918C
:10E19000882311F0D6DFF5CFDF91CF9108958DE080
:10E1A000D0DF8AE0CECFE8DFFACFCF93DF93EC0168
:10E1B0008991882311F0C5DFFBCFDF91CF910895BE
:10E1C000CF93C82F982F92959F70892F805D8A33A7
:10E1D00008F0895FB6DFCF708C2F805D8A3308F03E
:10E1E000895FAFDFCF9108950F931F93CF93DF9394
:10E1F000EC018B01853691051CF46330710544F008
:10E20000CE0164E670E00F9481FB862F805D99DF7C
:10E21000CB30D1051CF40230110564F0CE0164E668
:10E2200070E00F9481FB6AE070E00F9481FB862F11
:10E23000805D87DFCE016AE070E00F9481FB805D36
:10E2400080DFDF91CF911F910F9108950F931F935E
:10E25000CF93DF93C0911402D091150262507040A9
:10E26000804090400E811F812885398502501040E2
:10E2700020403040601771078207930788F42A8195
:10E2800030E040E050E00F9462FB8B019C018A89F2
:10E290009B89AC89BD89080F191F2A1F3B1F03C02A
:10E2A00000E010E09801B801C901DF91CF911F9102
:10E2B0000F910895CF93DF93EC01E0911402F09158
:10E2C0001502198218828C819D81AE81BF818130B7
:10E2D0009105A105B10561F1468157816085718580
:10E2E00084179507A607B70718F50097A105B1058C
:10E2F00039F42081233021F486859785A089B1895E
:10E3000088879987AA87BB870097A105B10531F057
:10E31000BC01CD019BDFDC01CB0104C08685978564
:10E32000A089B1898C879D87AE87BF8780E001C0B7
:10E3300081E0DF91CF9108950F931F93CF93DF93E7
:10E3400000D00F92CDB7DEB7DC01CB01E091140213
:10E35000F091150282309105A105B10508F452C073
:10E36000468157816085718584179507A607B70791
:10E3700008F048C02081223021F0233009F042C04B
:10E380001CC0492F5A2F6B2F7727028513852485B0
:10E390003585400F511F621F731F9C013070220F83
:10E3A000331FCE01019602E010E0D3D4882351F54B
:10E3B00009811A8120E030E029C0AC01BD0127E0CD
:10E3C00076956795579547952A95D1F702851385D8
:10E3D00024853585400F511F621F731F9C012F77C5
:10E3E0003070220F331F220F331FCE01019604E03D
:10E3F00010E0AFD4882331F409811A812B813C814C
:10E400003F7004C001E010E020E030E0B801C90135
:10E410000F900F900F900F90DF91CF911F910F9160
:10E420000895CF92DF92EF92FF920F931F93CF93B5
:10E43000DF93EC016A017B012EEF31E002E010E096
:10E4400088D4882341F5888199812AEA8535920705
:10E4500021F5CE01B701A60126E330E07AD4882366
:10E4600031F48881998121E486349207C1F0CE018C
:10E47000B701A60122E530E002E010E06AD488236B
:10E4800041F481E02881398191E42634390741F44F
:10E4900006C081E005C083E003C082E001C080E0E7
:10E4A000DF91CF911F910F91FF90EF90DF90CF9070
:10E4B00008954F925F926F927F92AF92BF92CF92E8
:10E4C000DF92EF92FF920F931F93CF93DF93CDB71D
:10E4D000DEB7A8970FB6F894DEBF0FBECDBF5C01C4
:10E4E0001092150210921402009709F4E2C08BD327
:10E4F00080FDE1C0CE01019640E050E0BA0191DF1D
:10E500008130D9F4CE01019640E050E0BA012EEB03
:10E5100031E000E110E01DD4882309F0CEC08D81E8
:10E52000882309F4CCC0C984DA84EB84FC84CE014E
:10E530000196B701A60175DF03C0CC24DD24760166
:10E54000833009F4BAC0882309F0B9C0CE0101961E
:10E55000B701A6012DE030E004E210E0FAD38823F1
:10E5600009F0ABC06A857B8580E090E0611571059C
:10E570008105910521F4688D798D8A8D9B8D2C8183
:10E5800030E040E050E00F9462FB6DA37EA38FA3C8
:10E5900098A74A815B8160E070E026013701440E54
:10E5A000551E661E771ED5011A964D925D926D928C
:10E5B0007C921D97298112962C931297CD80DE8034
:10E5C0001596DC92CE9214978F819885A0E0B0E0EA
:10E5D0000097A105B10521F48C899D89AE89BF8979
:10E5E00034E0D694C7943A95E1F7EE24FF24841BD7
:10E5F000950BA60BB70B4DA15EA16FA178A5841B4F
:10E60000950BA60BB70B8C199D09AE09BF0930E01D
:10E6100040E050E0BC01CD010F9494FB89019A01C8
:10E620000E5F1F4F2F4F3F4FD50116960D931D9331
:10E630002D933C931997073FBFE01B07B0E02B07D2
:10E64000B0E03B07E0F1073FEFEF1E07E0E02E07E9
:10E65000E0E03E0710F482E001C083E0D5018C9336
:10E66000833029F488A199A1AAA1BBA108C08DA1DA
:10E670009EA1AFA1B8A5840D951DA61DB71DF501DE
:10E6800086879787A08BB18BC40CD51CE61CF71C22
:10E690004DA15EA16FA178A5C40ED51EE61EF71E82
:10E6A000C28AD38AE48AF58A1182B0921502A092B6
:10E6B000140280E005C082E003C081E001C087E071
:10E6C000A8960FB6F894DEBF0FBECDBFDF91CF91F5
:10E6D0001F910F91FF90EF90DF90CF90BF90AF9080
:10E6E0007F906F905F904F9008958F929F92AF921E
:10E6F000BF92CF92DF92EF92FF920F931F93CF932F
:10E70000DF93CDB7DEB7EC970FB6F894DEBF0FBE40
:10E71000CDBF80901402909015028114910409F4E9
:10E720003CC1F40111829E012F5F3F4F388B2F8730
:10E730009C015901F90180812F5F3F4F8032C9F35D
:10E740008F3209F45901198A1A8A1B8A1C8AF50129
:10E750008081813240F4CE010D96ACDD1D8E882380
:10E7600009F4F1C01DC110E2E12EEF85F889DF0147
:10E770008BE090E001C0ED9201972FEF8F3F920761
:10E78000D1F790E0FF2428E0D501AF0DB11D8C91A9
:10E79000F3948132C0F08F32B1F08E3211F09217C3
:10E7A00038F0283081F48E3271F498E02BE0ECCF11
:10E7B000382F31563A3108F48052DF01A90FB11DCC
:10E7C0008C939F5FE1CF91E0813208F090E09387D6
:10E7D000CE010D966FDD882309F093C0498D5A8DC7
:10E7E0006B8D7C8D2D853E852F703070B5E0220FAE
:10E7F000331FBA95E1F7CE014D9600E210E0A9D2A1
:10E80000882309F0E7C08D8D882309F47DC048A5D1
:10E8100043FD14C0AF85B8899E01235E3F4FCD01F3
:10E820000B968D010817190709F4CDC0F901619104
:10E830009F01F80151918F016517A1F3C090140257
:10E84000D09015020D851E850F5F1F4F09F45CC027
:10E85000898D9A8DAB8DBC8D0097A105B10509F40A
:10E8600053C098012F7030702115310509F046C052
:10E870000196A11DB11D898F9A8FAB8FBC8F4D89D9
:10E880005E896F89788DF601411551056105710525
:10E8900031F48481958108171907B0F52FC0828162
:10E8A00090E001979801A4E036952795AA95E1F7A5
:10E8B00082239323009711F5CB01BA013DDDAB0113
:10E8C000BC01423051056105710508F483C0F601B1
:10E8D00086819781A085B185481759076A077B070C
:10E8E00098F44D8B5E8B6F8B788FCB01BA01AEDCC9
:10E8F000DC01CB01898F9A8FAB8FBC8F1E870D8770
:10E900006DCF833009F04CC0EF85F889838588236B
:10E9100009F462C044C044FF5FC0AF0CB11C49A9F8
:10E920005AA960E070E0BA01552744278FA998AD35
:10E93000A0E0B0E0482B592B6A2B7B2B498B5A8BDC
:10E940006B8B7C8B12CF8D8D882349F188A584FD3C
:10E9500026C049A95AA960E070E0BA0155274427AA
:10E960008FA998ADA0E0B0E0482B592B6A2B7B2BE8
:10E97000F401468F578F60A371A389AD9AADABADFB
:10E98000BCAD828F938FA48FB58F168A178A108E95
:10E99000118E81E0818380E003C086E001C083E0C6
:10E9A000EC960FB6F894DEBF0FBECDBFDF91CF91CE
:10E9B0001F910F91FF90EF90DF90CF90BF90AF909D
:10E9C0009F908F9008951B968C911B97882309F434
:10E9D000A2CFB9CF81E0E4CF84E0E2CF4F925F9243
:10E9E0006F927F928F929F92AF92BF92CF92DF925F
:10E9F000EF92FF920F931F93CF93DF933C016B0134
:10EA00004A01E0901402F0901502FA01118210827E
:10EA1000E114F10409F4AEC0F701818180FFACC0BC
:10EA2000428D538D648D758D86899789A08DB18DAA
:10EA3000481B590B6A0B7B0BC601A0E0B0E04817DE
:10EA400059076A077B0708F46A015301412C82E0E9
:10EA5000582E86C0F70146895789608D718DDB017C
:10EA6000CA019170A070B0700097A105B10509F0BE
:10EA700040C0DB01CA0109E0B695A7959795879537
:10EA80000A95D1F7C281C150C823E9F44115510557
:10EA90006105710529F4868D978DA0A1B1A108C0EB
:10EAA000F70162A173A184A195A146DCDC01CB0131
:10EAB00082309105A105B10508F458C0F70182A381
:10EAC00093A3A4A3B5A3F70162A173A184A195A107
:10EAD000BDDBDC01CB010097A105B10509F446C0FF
:10EAE0008C0F911DA11DB11DF70186A397A3A0A7AF
:10EAF000B1A7F701268937893170C201821B930BB8
:10EB0000E6018C159D0508F4EC016114710419F4FB
:10EB100080E090E001C0C501F70146A157A160A5C2
:10EB200071A58E0116D1882309F5AE0160E070E071
:10EB3000F70186899789A08DB18D840F951FA61F37
:10EB4000B71F868B978BA08FB18FAC0EBD1ECC1AD2
:10EB5000DD0AF401808191818C0F9D1F9183808358
:10EB6000C114D10409F076CF80E007C0F70111820B
:10EB700081E003C086E001C085E0DF91CF911F9165
:10EB80000F91FF90EF90DF90CF90BF90AF909F904C
:10EB90008F907F906F905F904F900895FF920F93AA
:10EBA0001F93CF93DF93C82FD42F152F062FF72E47
:10EBB00087FF08C087E740E050E0BA01EFDF82300E
:10EBC000E0F4CF7730D18C2F33D18F2D31D1802FFE
:10EBD0002FD1812F2DD18D2F2BD1C03421F0C834CE
:10EBE00021F081E003C085E901C087E821D1CAE0B6
:10EBF0001ED187FF02C0C150D9F7DF91CF911F917D
:10EC00000F91FF900895DF92EF92FF920F931F9361
:10EC1000CF93DF9300D00F920F92CDB7DEB7F6D02F
:10EC200004E6F9D00150E9F70AE000D10150E9F714
:10EC300080E440E050E0BA01B1DF813009F05FC00C
:10EC400088E44AEA51E060E070E0A8DF813091F5A5
:10EC50007E010894E11CF11C870134E0D32EE7D03B
:10EC6000F80181938F01DA94D1F78B81813009F01B
:10EC700046C08C818A3A09F042C005C0CCD0015010
:10EC8000104019F43CC000E117E289EE40E050E08A
:10EC900060E070E483DF882389F747C004E0C7D0D1
:10ECA000F70181937F010150D1F7898186FF25C04B
:10ECB0009CE026C089EE40E050E0BA016FDF823070
:10ECC00020F492E029EEE22E03C091E081E4E82EE8
:10ECD00000E117E208C09D839ED0015010409D8145
:10ECE0000115110561F08E2D40E050E0BA019D83C1
:10ECF00055DF9D81882379F721C094E001C090E021
:10ED0000909316029D8392D081E09D81911180E0C5
:10ED10000F900F900F900F900F90DF91CF911F9158
:10ED20000F91FF90EF90DF9008958AE740E050E068
:10ED3000BA0134DF882309F4B1CFE1CF80E540E0A8
:10ED400052E060E070E09D8329DF9D818823B9F661
:10ED5000D7CFAF92BF92CF92DF92EF92FF920F93F5
:10ED60001F93CF93DF930F92CDB7DEB76C0179017C
:10ED70008091160283FD07C0E9E0440F551F661F0E
:10ED8000771FEA95D1F781E509DF882379F550E40B
:10ED9000A52E5CE9B52E4BD08F3F39F40894A1081D
:10EDA000B108A114B104B9F721C08E3FF9F442E0D3
:10EDB000A42EB42EAE18BF08A01AB10AE114F104B3
:10EDC00029F035D00894E108F108F8CF30D0F601E9
:10EDD00081936F0101501040C9F729D00894A10810
:10EDE000B108A114B104C9F780E001C081E08983B2
:10EDF0001DD089810F90DF91CF911F910F91FF90CE
:10EE0000EF90DF90CF90BF90AF900895209A229A14
:10EE1000219A2B9A089580EA319731973197000013
:10EE20008A95D1F7089502D0289801C0289A8FEFCB
:10EE300098E087FD2A9A87FF2A98880F1B99839567
:10EE4000299A29989A95A9F70895FB018BBF83E029
:10EE500080935700E8958091570080FDFCCF81E1B9
:10EE600080935700E89508950F921F928BBFFB0186
:10EE7000DA0190E80D901D9081E080935700E895AD
:10EE800032969A95B9F7FB0185E080935700E89593
:10EE90008091570080FDFCCF81E180935700E89579
:10EEA0001F900F900895CF93DF93CDB7DEB7C15376
:10EEB000D1400FB6F894DEBF0FBECDBF01E20EBF4A
:10EEC0000FEF0DBF94B7F894A89514BE8091600021
:10EED00088618093600010926000789493FF05C071
:10EEE000E0911202F09113021995279A2F9A8091BE
:10EEF000C00082608093C00080E18093C40088E1FC
:10EF00008093C100000088249924540117ECC12E7D
:10EF10001BE1D12EE12CF12C00E010E024C025E013
:10EF20002A95F1F700000894811C911CA11CB11CCA
:10EF300001E010E031E283163EE4930630E0A306E0
:10EF400030E0B30610F400E010E0C501B401A70101
:10EF50009601EAD3DC01CB010097A105B10519F4B4
:10EF600085B1805885B98091C00087FD03C0011527
:10EF70001105A9F2C80101968130910509F030C34D
:10EF8000ECC280E090E081309105C9F41FC0019689
:10EF9000A11DB11D8130E2E19E07EAE7AE07E0E086
:10EFA000BE0780F0C05DDE4F88819981C053D1409B
:10EFB000AFEF8F3F9A0719F0EE27FF27099480E003
:10EFC00090E0DC013091C00037FFE1CF3091C60006
:10EFD0000894C11CD11C3132F1F4BAE0CB16D10433
:10EFE000D0F40F5F1F4F03301105B9F4CA5DDE4F37
:10EFF000D982C882C652D140C85DDE4F798368830A
:10F00000C852D140CC5DDE4F19821882C452D14023
:10F010002224239457C000E010E02330D9F024309C
:10F0200028F4213071F0223080F407C0253009F136
:10F030002530B8F0263081F52BC03B3109F0A1CF47
:10F0400039C3E326332E22E09CCF532F40E0E32642
:10F0500023E097CF832F90E0482B592BE32624E021
:10F0600090CF3E3009F02AC3E32660E070E025E04F
:10F0700088CFE3E0F0E0EC0FFD1FE60FF71F3083D1
:10F080006F5F7F4FE3266417750709F07ACF18C3C7
:10F090003E1509F013C303C0273009F072CFCC5DD1
:10F0A000DE4F19830883C452D140CA5DDE4FD98236
:10F0B000C882C652D140C85DDE4F79836883C8528A
:10F0C000D14022248B81833109F402C18431C8F4F8
:10F0D000863009F4D0C0873050F4823009F4F6C08D
:10F0E000833009F46AC0813009F0FEC14FC081311C
:10F0F00009F470C0823108F0B0C0803109F0F4C169
:10F10000E5C0883109F483C0893150F4853109F4B0
:10F11000DFC0853108F488C1863109F0E5C184C1BA
:10F120008A3109F467C08A3108F485C08B3109F44B
:10F1300054C08D3109F0D8C18F81803339F499855D
:10F140009923A9F09130A9F4E8E916C0982F907599
:10F1500091F0803519F4E0E0F0E004C0883559F40E
:10F16000E3E0F0E099E090935700E49105C0EEE110
:10F1700003C0E1E001C0E0E01C821D828E831F829B
:10F18000E8871986B7E0CB2ED12CB3C11C8288E06A
:10F190008D8381E48E8386E58F8382E5888789E489
:10F1A000898783E58A8780E58B878FE58C8782E373
:10F1B0008D87ABE0CA2ED12C9CC1EC81E059E330A5
:10F1C00028F4F0E0E25FFD4F808101C080E01C8206
:10F1D0008D833FC02224239479C08F81882321F01E
:10F1E000813021F488E903C08EE101C081E01C82F6
:10F1F0008D8308C01C82E1E0F0E089E08093570035
:10F20000E491ED831E82F4E0CF2ED12C72C18D816A
:10F21000803549F48E81883019F4E2E0F0E005C0D1
:10F22000E0E0F0E002C0E3E0F0E089E08093570026
:10F23000E4911C82E6CF8F81836C99E0E1E0F0E0FD
:10F24000082E90935700E89507B600FCFDCF1C826E
:10F250001D82E3E0CE2ED12C4CC180EC8C8372E079
:10F26000C72ED12CC05EDE4F188219821A821B82F3
:10F27000C052D1403EC18C8190E0A0E0B0E0782E39
:10F280006624552444248D8190E0A0E0B0E0DC01A8
:10F2900099278827482A592A6A2A7B2A8F8190E051
:10F2A000A0E0B0E0482A592A6A2A7B2A8E8190E0A1
:10F2B000A0E0B0E0BA2FA92F982F8827482A592A12
:10F2C0006A2A7B2A440C551C661C771C1C820EC1C2
:10F2D000EC81C55DDE4FE883CB52D140C65DDE4F89
:10F2E0001882CA52D140CD80DD24C65DDE4F288110
:10F2F0003981CA52D140C22AD32A833109F06CC065
:10F30000C05EDE4F288139814A815B81C052D14085
:10F31000203080EC380783E0480780E05807F0F49D
:10F3200083E0F90140935B0080935700E89507B6AE
:10F3300000FCFDCFC05EDE4F288139814A815B81B0
:10F34000C052D14020503F4F4F4F5F4FC05EDE4F05
:10F35000288339834A835B83C052D1408D85DE0187
:10F360001F969301820141E0B601FD013197508162
:10F37000C35DDE4F5883CD52D140C45DDE4F18824D
:10F38000CC52D14090E0C45DDE4FE881F981CC528F
:10F39000D1408E2B9F2B0C01F80120935B004093F2
:10F3A0005700E89511240E5F1F4F2F4F3F4F6250BB
:10F3B000704019F08C911296D8CF85E0F2016092DE
:10F3C0005B0080935700E89507B600FCFDCF81E114
:10F3D00080935700E89524C053014201B694A79446
:10F3E0009794879400E010E02DE0E22EF12CEC0ED3
:10F3F000FD1E09C0D7016D917D01C801880D991DC1
:10F40000D8D10F5F1F4F0C151D05A1F720E030E08C
:10F41000000F111F221F331F040D151D261D371D40
:10F420001C822801390162C0BC81C15DDE4FB883F6
:10F43000CF52D140C25DDE4F1882CE52D1402D81D5
:10F4400030E0C25DDE4FE881F981CE52D1402E2BF3
:10F450003F2BB3E0CB2ED12CC20ED31E1C828431A5
:10F46000C9F4DE011596A9019D01D301C201ABBF0C
:10F47000FC0167917691F901608371832E5F3F4FA4
:10F480000296A11DB11D4250504089F72C013D014B
:10F49000D90128C0F901B301A2018E010B5F1F4FF2
:10F4A00041BDBB27A72F962F852F82BD4F5F5F4F92
:10F4B0006F4F7F4FF89A80B5D8018D938D013197AA
:10F4C00079F7C9010197A0E0B0E00196A11DB11D37
:10F4D000480E591E6A1E7B1EA5E0B0E0AC0FBD1F92
:10F4E000A20FB31F1C9205C080EC8C8332E0C32EA8
:10F4F000D12C8BE10F94A1F0832D0F94A1F08D2DD1
:10F500000F94A1F08C2D0F94A1F08EE00F94A1F038
:10F5100095E1E92EE324EC24ED2423E0822E912CC6
:10F520008C0E9D1E0AC0F40111914F01812F0F9482
:10F53000A1F0E1260894C108D108C114D10499F7BB
:10F540008E2D0F94A1F0339485B1805885B9222077
:10F5500009F0A2C080E090E02DC0CA5DDE4F1982A4
:10F560001882C652D140CC5DDE4F19821882C45237
:10F57000D140332410E0C85DDE4F19821882C85292
:10F58000D140C05EDE4F188219821A821B82C0529F
:10F59000D14044245524320120E030E0A9014BBF82
:10F5A000F90147915691C05DDE4F59834883C0539E
:10F5B000D140E12E40E050E020E0CC5DDE4F0881FC
:10F5C0001981C452D140CA5DDE4FC880D980C6526D
:10F5D000D140C85DDE4F68817981C852D140D3CC1B
:10F5E0008230910509F058C08FEF91E0DAD0803F6A
:10F5F00009F052C087E192E00F9459F280E092E066
:10F6000074D8882309F048C08DE00F94A1F08AE0F7
:10F610000F94A1F088249924540185B1805885B9AC
:10F6200082E390E00F94ADF0C501B4010EDC89E4F3
:10F6300092E06FEF70E040E051E0ACD089E492E0FE
:10F6400060E071E0AE014F5F5F4FC8D989819A8158
:10F65000009729F0C501B40149E452E005DC80E0DF
:10F6600091E0A0E0B0E0880E991EAA1EBB1E90E0BB
:10F67000891690EE990693E0A90690E0B90669F61E
:10F680008DE00F94A1F08AE00F94A1F010920D028A
:10F690008FEF91E06FEF8DD000008091C0008D7FE3
:10F6A0008093C00081E180935700E895EE27FF2703
:10F6B0000994FFCF8BE1E82E21E063CC20E061CC00
:10F6C00026E05FCC629FD001739FF001829FE00D26
:10F6D000F11D649FE00DF11D929FF00D839FF00DD1
:10F6E000749FF00D659FF00D9927729FB00DE11D7D
:10F6F000F91F639FB00DE11DF91FBD01CF0111245A
:10F70000089597FB092E07260AD077FD04D02ED046
:10F7100006D000201AF4709561957F4F0895F6F792
:10F72000909581959F4F0895A1E21A2EAA1BBB1BAD
:10F73000FD010DC0AA1FBB1FEE1FFF1FA217B307BD
:10F74000E407F50720F0A21BB30BE40BF50B661FD3
:10F75000771F881F991F1A9469F760957095809597
:10F7600090959B01AC01BD01CF010895AA1BBB1B65
:10F7700051E107C0AA1FBB1FA617B70710F0A61BB1
:10F78000B70B881F991F5A95A9F780959095BC01D2
:10F79000CD010895DC0101C06D9341505040E0F768
:10F7A0000895F999FECF92BD81BDF89A992780B549
:10F7B0000895262FF999FECF1FBA92BD81BD20BDB5
:10F7C0000FB6F894FA9AF99A0FBE01960895F89434
:02F7D000FFCF69
:10F7D2006669726D776172652E62696E00010F0251
:02F7E2000A001B
:040000033000E000E9
:00000001FF
