:020000023000CC
:10E0000077C000009BC0000099C0000097C00000CE
:10E0100095C0000093C0000091C000008FC00000B8
:10E020008DC000008BC0000089C0000087C00000C8
:10E0300085C0000083C0000081C000007FC00000D8
:10E040007DC000007BC0000079C0000077C00000E8
:10E0500075C0000073C0000071C000006FC00000F8
:10E060006DC000006BC0000069C0000067C0000008
:10E0700065C0000063C0000061C000005FC0000018
:10E080005DC000005BC0000059C0000057C0000028
:10E0900055C0000053C0000051C000004FC0000038
:10E0A0004DC000004BC0000049C0000047C0000048
:10E0B00045C0000043C0000041C000003FC0000058
:10E0C0003DC000003BC0000039C0000037C0000068
:10E0D00035C0000033C0000031C000002FC0000078
:10E0E0002DC0000041546D65676132353630000047
:10E0F00011241FBECFEFD1E2DEBFCDBF01E00CBFC8
:10E1000012E0A0E0B2E0E8E2FEEE03E00BBF02C0E6
:10E1100007900D92A430B107D9F723E0A4E0B2E054
:10E1200001C01D92A231B207E1F7F2D17BC601E234
:10E130000EBF0FEF0DBF11241FBEEAC161CF809348
:10E14000C6008091C00086FFFCCF8091C000806433
:10E150008093C00008958EBD0DB407FEFDCF8EB52F
:10E1600008959CB5937F982B9CBD0895811103C0A1
:10E170008CB5806202C08CB58F7D8CBD08952CB5A6
:10E18000982F93702C7F922B9CBD9DB582FB882786
:10E1900080F99E7F892B8DBD08957698289A85E019
:10E1A000DADF80E0D8DF769A28980895F6DF81706C
:10E1B0000895CF93C82FFADF8111FDCF76988C2F69
:10E1C000CF91C9CF1F93CF93DF931F921F92CDB7EB
:10E1D000DEB7182F769883E06A837983EADF812F90
:10E1E000BADF7981872FB7DF6A81862FB4DF80E0BD
:10E1F000B2DF769A0F900F90DF91CF911F91089523
:10E2000020E030E02817390749F0EFECF7E03197CC
:10E21000F1F700C000002F5F3F4FF4CF0895CF9279
:10E22000DF92EF92FF920F931F93CF93DF93CDB7BF
:10E23000DEB7C85CD1090FB6F894DEBF0FBECDBF04
:10E240006B017C01611571058105910521F480E365
:10E2500076DF80E374DFFE01319680E090E0DC0140
:10E260008F011C141D041E041F04ACF4B701A60189
:10E270004F70552766277727419351936193719388
:10E2800024E0F594E794D794C7942A95D1F70196A2
:10E29000A11DB11DE6CF6C017D0121E0C21AD1089C
:10E2A000E108F1082FEFC216D206E206F20609F4E1
:10E2B0006CC0F601EE0FFF1FEE0FFF1FE00FF11F06
:10E2C00080819181A281B38187309105A105B1053B
:10E2D00009F445C0DCF483309105A105B105C9F10D
:10E2E0006CF481309105A105B10579F184F5892B94
:10E2F0008A2B8B2B09F041C080E340C0853091050B
:10E30000A105B10541F14CF584E338C08B3091058E
:10E31000A105B10551F144F489309105A105B1057C
:10E3200001F10CF588E32AC08D309105A105B105F6
:10E3300001F1ECF08E309105A105B105E1F00F97E8
:10E34000A105B105D1F486E419C081E317C082E3C9
:10E3500015C083E313C085E311C086E30FC087E3D4
:10E360000DC089E30BC081E409C082E407C083E4E7
:10E3700005C084E403C085E401C088E5E0DE81E0F7
:10E38000C81AD108E108F1088DCFC853DF4F0FB686
:10E39000F894DEBF0FBECDBFDF91CF911F910F91DB
:10E3A000FF90EF90DF90CF900895CF93DF93EC0133
:10E3B000C60FD11DAE0160E070E06BBFFA0187911E
:10E3C000882319F02196BBDEF5CFDF91CF91089518
:10E3D0008DE0B5DE8AE0B3CEE8DFFACFCF93DF93EE
:10E3E000EC018991882311F0AADEFBCFDF91CF9158
:10E3F0000895CF93C82F82958F7090E3980F9A332A
:10E4000010F097E3980F892F9ADECF7080E38C0F7E
:10E410008A3310F087E38C0FCF9191CE0F931F9327
:10E42000CF93DF93EC018B01853691051CF46330AB
:10E4300071053CF0CE0164E670E072D480E3860F93
:10E440007EDECB30D1051CF40230110554F0CE0134
:10E4500064E670E065D46AE070E062D480E3860F21
:10E460006EDECE016AE070E05BD4805DDF91CF911B
:10E470001F910F9164CE209A229A219A2B9A089587
:10E4800080EA31973197319700008A95D1F7089546
:10E4900002D0289801C0289A8FEF98E087FD2A9A29
:10E4A00087FF2A98880F1B998395299A29989A950E
:10E4B000A9F70895FB018BBF83E080935700E8958F
:10E4C0008091570080FDFCCF81E180935700E89553
:10E4D00008950F921F928BBFFB01DA0190E80D9017
:10E4E0001D9081E080935700E89532969A95B9F790
:10E4F000FB0185E080935700E8958091570080FDEF
:10E50000FCCF81E180935700E8951F900F9008950C
:10E51000CF93DF93CDB7DEB7C952D1400FB6F89491
:10E52000DEBF0FBECDBF80E01CDE81E01FDE84E0D9
:10E5300026DE87E082B981B98EE085B986E084B9AC
:10E5400080E48EB98DB9109811981298769A289A0D
:10E550008CB580618CBD8CB580648CBD01E20EBF32
:10E560000FEF0DBF94B7F894A89514BE809160008A
:10E5700088618093600010926000789493FF05C0DA
:10E58000E0910402F091050219958091C00082602B
:10E590008093C00080E18093C40088E18093C10033
:10E5A000000080E090E0DC0140E050E02091C000FD
:10E5B00027FF06C04F5F5F4F41155105A9F317C0F4
:10E5C00041155105B9F725E02A95F1F700000196AC
:10E5D000A11DB11D31E020E0813A46E8940741E0F9
:10E5E000A407B10508F430E0432F522FDFCF4130AC
:10E5F000510509F0D9C2CE5DDE4F19821882C25290
:10E60000D140C85DDE4F19821882C852D140C05E29
:10E61000DE4F1882C052D140312CC25EDE4F1982CB
:10E620001882CE51D140C12CD12C7601412C512CD5
:10E63000320120E030E080E041305105F9F040E067
:10E6400050E0BA019091C00097FD18C04F5F5F4F36
:10E650006F4F7F4F413092E159079AE76907710583
:10E6600088F3812C912C5401ABBEF401A791B69193
:10E67000119629F3EE27FF270994E1CF9091C60068
:10E68000CE5DDE4F48815981C252D1404F5F5F4F0E
:10E69000CE5DDE4F59834883C252D1409132A9F4F6
:10E6A0004A30510590F4C85DDE4F48815981C85207
:10E6B000D1404F5F5F4FC85DDE4F59834883C852DA
:10E6C000D1404330510539F461C0C85DDE4F198235
:10E6D0001882C852D140833009F120F4813079F09A
:10E6E00040F015C0853051F1E8F0863009F447C09C
:10E6F00049C09B3109F406C340E050E09DCF392664
:10E70000C05EDE4F9883C052D14082E0F5CF292F02
:10E7100030E0322F2227392683E0EECF292B39260D
:10E7200084E0EACF9E3009F0F1C23926C25EDE4FA6
:10E7300019821882CE51D14085E0DECFC25EDE4F15
:10E7400048815981CE51D1404F5F5F4FE1E0F0E009
:10E75000EC0FFD1FC25EDE4F88809980CE51D14004
:10E76000E80DF91D908339264217530709F4D0C2EA
:10E77000C25EDE4F59834883CE51D140BDCF931145
:10E78000C5C211C0873009F0B7CF0DC0C85DDE4FDC
:10E7900019821882C852D14021E0CF5DDE4F288314
:10E7A000C152D14005C0CF5DDE4F1882C152D14069
:10E7B0002981233109F4DCC060F5263009F4C5C095
:10E7C000F8F4223009F4D2C0233009F464C02130B7
:10E7D00009F0A7C11A8288E08B8381E48C8386E5E7
:10E7E0008D8382E58E8389E48F8383E5888780E546
:10E7F00089878FE58A8782E38B870BE010E095C1DC
:10E80000213109F455C008F098C0203109F4AEC098
:10E8100088C1283109F46AC048F4253109F4A8C038
:10E8200008F42BC1263109F428C17BC12A3109F42F
:10E8300051C008F471C02B3109F441C02D3109F0E9
:10E8400070C18D81803339F49F819923B1F091306B
:10E85000B1F498E917C0982F907599F0803521F49C
:10E8600099E0E0E0F0E005C0883559F4E3E0F0E03D
:10E8700099E090935700949105C09EE103C091E008
:10E8800001C090E01A821B828C831D829E831F82AE
:10E8900007E010E04AC1EA81E059E33028F4F0E0F3
:10E8A000EF5FFD4F808101C080E01A828B8342C000
:10E8B00021E0CF5DDE4F2883C152D14057C08D810A
:10E8C000882321F0813021F488E923C08EE121C022
:10E8D00081E01FC01A82E1E0F0E089E080935700F8
:10E8E000E491EB831C8204E010E01FC18B81803532
:10E8F00051F48C81883019F4E2E0F0E006C089E040
:10E90000E0E0F0E003C0E3E0F0E089E0809357004E
:10E9100084911A828B83E6CF8D81836C99E0E1E04C
:10E92000F0E0082E90935700E89507B600FCFDCF65
:10E930001A821B8203E010E0F8C080EC8A8302E0B8
:10E9400010E0C12CD12C7601F0C08A814B80512C73
:10E95000612C712C320155244424782A8D81482A57
:10E960008C81582A440C551C661C771C1A82DBC00B
:10E970002A80312C322C22248B81282A233109F041
:10E9800047C0C114F0ECDF06F3E0EF06F10470F4C9
:10E9900083E0F601E0925B0080935700E89507B6AC
:10E9A00000FCFDCF2FEFD21AE20AF20A2B85B30149
:10E9B000A201CE010B9611E0DC011296CD01FD0102
:10E9C0003197E08130E03E2B0901FA0160935B0052
:10E9D00010935700E89511244E5F5F4F6F4F7F4FA4
:10E9E000E2E02E1A31082114310411F02C91E4CF09
:10E9F00085E0882EF20160925B0080925700E895D6
:10EA000007B600FCFDCF81E180935700E89531C047
:10EA1000B301A2017695679557954795CC5DDE4F7A
:10EA2000488359836A837B83C452D1408E01055F3A
:10EA30001F4FA12CB12CA214B30481F0D8016D9109
:10EA40008D01CC5DDE4F88819981C452D1408A0D01
:10EA50009B1DDAD1BFEFAB1ABB0AEDCFA50160E079
:10EA600070E0440F551F661F771F440D551D661D2E
:10EA7000771D1A822A013B0156C08A8190E0982FA7
:10EA800088273B81832B8C010D5F1F4F1A82243115
:10EA9000A1F4DE0113966BBEF201279136912C93FF
:10EAA0001296FD0131973083E2E04E0E511C611C3D
:10EAB000711C0297009779F732C0FE0133969C01D2
:10EAC000B301A20141BD852E962EA72EBB24CC5D9D
:10EAD000DE4F88829982AA82BB82C452D14082BC16
:10EAE0004F5F5F4F6F4F7F4FF89AA0B5A1932150B2
:10EAF00031092115310531F7AC014150510960E070
:10EB000070E04F5F5F4F6F4F7F4F440E551E661E84
:10EB1000771EA3E0B0E0AC0FBD1FA80FB91F1C9279
:10EB200004C080EC8A8302E010E08BE108DBC05E69
:10EB3000DE4F8881C052D14002DB812F00DB802F65
:10EB4000FEDA8EE0FCDA65E1362EC05EDE4F98809C
:10EB5000C052D140392430263126AE014F5F5F4F7D
:10EB60005A01040F151FA016B10639F0D5012D90DA
:10EB70005D01822DE4DA3224F6CF832DE0DAC05E27
:10EB8000DE4F2881C052D1402F5FC05EDE4F288308
:10EB9000C052D140CF5DDE4F4881C152D1404111BA
:10EBA000A3C040E050E045CD4230510509F09CC083
:10EBB0008FEF9FE021D1803F09F096C085E7BFDA53
:10EBC00080E7BDDA87E6BBDA82E7B9DA81E6B7DA51
:10EBD00084E6B5DA89E6B3DA8EE6B1DA87E6AFDA4B
:10EBE0008DE0ADDA8AE0ABDA84E690E009DB8DE017
:10EBF000A6DA8AE0A4DAC12CD12C760150EB452E9E
:10EC000054E0552E612C712C4601570150E1850EC0
:10EC1000911CA11CB11C82E390E0F2DAC701B6019D
:10EC200049DC40E051E06FEF70E08EE092E0DDD033
:10EC30000EE012E0C501B401C5DAD8018D938D0153
:10EC4000BFEF8B1A9B0AAB0ABB0AC501B4016F5F09
:10EC50007F4F8F4F9F4FA301920175D06D32E1E03E
:10EC60007E078105910518F4109A11980DC09B013B
:10EC7000AC0120593140410951092D323140410543
:10EC8000510520F41098119A12980DC0DC01CB01A7
:10EC90000897A109B10985349440A105B10518F47C
:10ECA00010981198129A43E00E30140719F64EE0AE
:10ECB00052E0C701B6010DDC5FEFD51AE50AF50A8F
:10ECC000C11460EED60663E0E606F10409F09CCFBD
:10ECD00084E635DA8DE033DA8AE031DA1092000228
:10ECE00060E08FEF9FE090D000008091C0008D7FAA
:10ECF0008093C00081E180935700E895EE27FF27BD
:10ED00000994FFCF4BE1342E81E0F6CC80E0F4CCC7
:10ED1000C25EDE4F39832883CE51D14086E0ECCCF1
:10ED200097FB072E16F4009406D077FD08D027D065
:10ED300007FC05D03EF4909581959F4F08957095FE
:10ED400061957F4F0895052E97FB16F400940FD020
:10ED500057FD05D028D007FC02D046F408C05095D6
:10ED60004095309521953F4F4F4F5F4F08959095B7
:10ED70008095709561957F4F8F4F9F4F0895AA1B87
:10ED8000BB1B51E107C0AA1FBB1FA617B70710F096
:10ED9000A61BB70B881F991F5A95A9F780959095C8
:10EDA000BC01CD010895A1E21A2EAA1BBB1BFD01D7
:10EDB0000DC0AA1FBB1FEE1FFF1FA217B307E4075A
:10EDC000F50720F0A21BB30BE40BF50B661F771FB2
:10EDD000881F991F1A9469F7609570958095909592
:10EDE0009B01AC01BD01CF010895DC0101C06D9311
:10EDF00041505040E0F70895F999FECF92BD81BD92
:10EE0000F89A992780B50895262FF999FECF1FBA51
:10EE100092BD81BD20BD0FB6F894FA9AF99A0FBE43
:08EE200001960895F894FFCF5C
:04EE2800010F020ACA
:040000033000E000E9
:00000001FF
