:020000023000CC
:10E0000077C000009CC000009AC0000098C00000CB
:10E0100096C0000094C0000092C0000090C00000B4
:10E020008EC000008CC000008AC0000088C00000C4
:10E0300086C0000084C0000082C0000080C00000D4
:10E040007EC000007CC000007AC0000078C00000E4
:10E0500076C0000074C0000072C0000070C00000F4
:10E060006EC000006CC000006AC0000068C0000004
:10E0700066C0000064C0000062C0000060C0000014
:10E080005EC000005CC000005AC0000058C0000024
:10E0900056C0000054C0000052C0000050C0000034
:10E0A0004EC000004CC000004AC0000048C0000044
:10E0B00046C0000044C0000042C0000040C0000054
:10E0C0003EC000003CC000003AC0000038C0000064
:10E0D00036C0000034C0000032C0000030C0000074
:10E0E0002EC0000041546D65676132353630000046
:10E0F00011241FBECFEFD1E2DEBFCDBF01E00CBFC8
:10E1000012E0A0E0B2E0E6E4FEEE03E00BBF02C0E6
:10E1100007900D92A430B107D9F71BBE13E0A4E01D
:10E12000B2E001C01D92A231B107E1F711D289C658
:10E1300001E20EBF0FEF0DBF11241FBE09C260CF59
:10E140008093C6008091C00086FFFCCF8091C00004
:10E1500080648093C00008958EBD0DB407FEFDCF8E
:10E160008EB508959CB5937F982B9CBD0895882308
:10E1700019F48CB5806202C08CB58F7D8CBD08957A
:10E180002CB5982F93702C7F922B9CBD9DB58695B6
:10E19000869581709E7F892B8DBD0895109885E0AE
:10E1A000DBDF80E0D9DF109A0895F8DF81700895F1
:10E1B000CF93C82FFADF8823E9F710988C2FCCDF94
:10E1C000CF9108951F93CF93DF930F920F92CDB706
:10E1D000DEB7182F109883E06A837983E9DF812FF7
:10E1E000BBDF7981872FB8DF6A81862FB5DF80E0BA
:10E1F000B3DF109A0F900F90DF91CF911F91089588
:10E2000020E030E008C0EFECF7E03197F1F700C014
:10E2100000002F5F3F4F28173907A9F70895CF92C5
:10E22000DF92EF92FF92CF93DF93CDB7DEB7C85C5A
:10E23000D0400FB6F894DEBF0FBECDBF6B017C019E
:10E24000611571058105910521F480E379DF80E393
:10E2500077DFFE01319680E090E0DC0114C0B70169
:10E26000A6014F705070607070704193519361932C
:10E27000719324E0F594E794D794C7942A95D1F745
:10E280000196A11DB11D1C141D041E041F043CF3A6
:10E290006C017D018DC0F601EE0FFF1FEE0FFF1F19
:10E2A00081E090E08C0F9D1FE80FF91F8081918124
:10E2B000A281B38187309105A105B10509F464C03D
:10E2C00088309105A105B1053CF583309105A10584
:10E2D000B10509F451C084309105A105B1058CF454
:10E2E00081309105A105B10509F442C08230910544
:10E2F000A105B1050CF03EC00097A105B105B1F133
:10E3000055C085309105A105B105D1F18630910543
:10E31000A105B105BCF532C08B309105A105B10551
:10E32000D9F18C309105A105B1055CF489309105D6
:10E33000A105B10569F18A309105A105B10554F532
:10E3400025C08D309105A105B10551F18D309105A4
:10E35000A105B1051CF18E309105A105B10511F1A2
:10E360008F309105A105B10509F51EC080E31FC0DE
:10E3700081E31DC082E31BC083E319C084E317C09F
:10E3800085E315C086E313C087E311C088E30FC09F
:10E3900089E30DC081E40BC082E409C083E407C0B7
:10E3A00084E405C085E403C086E401C088E5C8DED6
:10E3B0000894C108D108E108F1089FEFC9169FEF42
:10E3C000D9069FEFE9069FEFF90609F064CFC8531D
:10E3D000DF4F0FB6F894DEBF0FBECDBFDF91CF91F8
:10E3E000FF90EF90DF90CF900895CF93DF93EC01F3
:10E3F000C60FD11DCE01A0E0B0E02196ABBFFC015D
:10E400008791882311F09CDEF5CFDF91CF9108959D
:10E410008DE096DE8AE094CEE8DFFACFCF93DF93EB
:10E42000EC018991882311F08BDEFBCFDF91CF9136
:10E430000895CF93C82F982F92959F70892F805D54
:10E440008A3308F0895F7CDECF708C2F805D8A3341
:10E4500008F0895F75DECF9108950F931F93CF93D6
:10E46000DF93EC018B01853691051CF46330710557
:10E470003CF0CE0164E670E0A0D4862F805D60DEC3
:10E48000CB30D1051CF40230110554F0CE0164E606
:10E4900070E093D46AE070E090D4862F805D50DE07
:10E4A000CE016AE070E089D4805D4ADEDF91CF91D1
:10E4B0001F910F910895209A229A219A2B9A0895DC
:10E4C00080EA31973197319700008A95D1F7089506
:10E4D00002D0289801C0289A8FEF98E087FD2A9AE9
:10E4E00087FF2A98880F1B998395299A29989A95CE
:10E4F000A9F70895FB018BBF83E080935700E8954F
:10E500008091570080FDFCCF81E180935700E89512
:10E5100008950F921F928BBFFB01DA0190E80D90D6
:10E520001D9081E080935700E89532969A95B9F74F
:10E53000FB0185E080935700E8958091570080FDAE
:10E54000FCCF81E180935700E8951F900F900895CC
:10E55000CF93DF93CDB7DEB7CF52D1400FB6F8944B
:10E56000DEBF0FBECDBF80E0FDDD81E000DE84E0D8
:10E5700007DE81E082B99EE095B981B986E084B971
:10E58000109A8CB580618CBD8CB580648CBD01E225
:10E590000EBF0FEF0DBF94B7F894A89514BE8091ED
:10E5A000600088618093600010926000789493FF0F
:10E5B00005C0E0910402F091050219958091C00018
:10E5C00082608093C00080E18093C40088E18093E2
:10E5D000C100000040E050E0BA0112C025E02A95D9
:10E5E000F1F700004F5F5F4F6F4F7F4F81E090E08A
:10E5F000413A36E8530731E0630730E0730710F41F
:10E6000080E090E02091C00027FD02C0009731F328
:10E6100001968130910509F025C3E1C280E090E0C8
:10E6200081309105C9F41FC00196A11DB11D813033
:10E63000E2E19E07EAE7AE07E0E0BE0780F0C25DD8
:10E64000DE4F88819981CE52D140AFEF8F3F9A073C
:10E6500019F0EE27FF27099480E090E0DC0130916B
:10E66000C00037FFE1CF3091C6000894C11CD11C17
:10E670003132F1F4BAE0CB16D104D0F40F5F1F4F62
:10E6800003301105B9F4CC5DDE4FD982C882C45283
:10E69000D140CA5DDE4F79836883C652D140CE5DDA
:10E6A000DE4F19821882C252D1402224239457C0CF
:10E6B00000E010E02330D9F0243028F4213071F04C
:10E6C000223080F407C0253009F12530B8F026301B
:10E6D00081F52BC03B3109F0A1CF67C3E326332E70
:10E6E00022E09CCF532F40E0E32623E097CF832FF7
:10E6F00090E0482B592BE32624E090CF3E3009F0E0
:10E7000058C3E32660E070E025E088CFE1E0F0E068
:10E71000EC0FFD1FE60FF71F30836F5F7F4FE3267F
:10E720006417750709F07ACF46C33E1509F041C357
:10E7300003C0273009F072CFCE5DDE4F1983088306
:10E74000C252D140CC5DDE4FD982C882C452D14082
:10E75000CA5DDE4F79836883C652D1402224898105
:10E76000833109F402C18431C8F4863009F4D0C081
:10E77000873050F4823009F4F6C0833009F46AC05F
:10E78000813009F0FEC14FC0813109F470C082317F
:10E7900008F0B0C0803109F0F4C1E5C0883109F457
:10E7A00083C0893150F4853109F4DFC0853108F424
:10E7B00088C1863109F0E5C184C18A3109F467C096
:10E7C0008A3108F485C08B3109F454C08D3109F0C9
:10E7D000D8C18D81803339F49F819923A9F091307C
:10E7E000A9F4E8E916C0982F907591F0803519F4D6
:10E7F000E0E0F0E004C0883559F4E3E0F0E099E0AF
:10E8000090935700E49105C0EEE103C0E1E001C040
:10E81000E0E01A821B828C831D82EE831F82B7E0A8
:10E82000CB2ED12CB3C11A8288E08B8381E48C83F8
:10E8300086E58D8382E58E8389E48F8383E58887EF
:10E8400080E589878FE58A8782E38B87ABE0CA2ED4
:10E85000D12C9CC1EA81E059E33028F4F0E0EF5F6D
:10E86000FD4F808101C080E01A828B833FC022244B
:10E87000239479C08D81882321F0813021F488E9A7
:10E8800003C08EE101C081E01A828B8308C01A8226
:10E89000E1E0F0E089E080935700E491EB831C8293
:10E8A000F4E0CF2ED12C72C18B81803549F48C815C
:10E8B000883019F4E2E0F0E005C0E0E0F0E002C0EA
:10E8C000E3E0F0E089E080935700E4911A82E6CF1C
:10E8D0008D81836C99E0E1E0F0E0082E9093570081
:10E8E000E89507B600FCFDCF1A821B82E3E0CE2E2E
:10E8F000D12C4CC180EC8A8372E0C72ED12CC25E31
:10E90000DE4F188219821A821B82CE51D1403EC13D
:10E910008A8190E0A0E0B0E0782E6624552444245B
:10E920008B8190E0A0E0B0E0DC0199278827482A9D
:10E93000592A6A2A7B2A8D8190E0A0E0B0E0482A1B
:10E94000592A6A2A7B2A8C8190E0A0E0B0E0BA2F95
:10E95000A92F982F8827482A592A6A2A7B2A440CEB
:10E96000551C661C771C1A820EC1EA81C75DDE4FFA
:10E97000E883C952D140C85DDE4F1882C852D140E9
:10E98000CB80DD24C85DDE4F28813981C852D1405B
:10E99000C22AD32A833109F06CC0C25EDE4F2881BF
:10E9A00039814A815B81CE51D140203080EC3807DB
:10E9B00083E0480780E05807F0F483E0F9014093D2
:10E9C0005B0080935700E89507B600FCFDCFC25E60
:10E9D000DE4F288139814A815B81CE51D140205060
:10E9E0003F4F4F4F5F4FC25EDE4F288339834A83CC
:10E9F0005B83CE51D1408B85DE011D969301820150
:10EA000041E0B601FD0131975081C55DDE4F58836D
:10EA1000CB52D140C65DDE4F1882CA52D14090E041
:10EA2000C65DDE4FE881F981CA52D1408E2B9F2B03
:10EA30000C01F80120935B0040935700E8951124E6
:10EA40000E5F1F4F2F4F3F4F6250704019F08C9157
:10EA50001296D8CF85E0F20160925B008093570058
:10EA6000E89507B600FCFDCF81E180935700E8955B
:10EA700024C053014201B694A7949794879400E070
:10EA800010E02BE0E22EF12CEC0EFD1E09C0D701A8
:10EA90006D917D01C801880D991DC5D10F5F1F4F74
:10EAA0000C151D05A1F720E030E0000F111F221FFB
:10EAB000331F040D151D261D371D1A82280139012B
:10EAC00062C0BA81C35DDE4FB883CD52D140C45D10
:10EAD000DE4F1882CC52D1402B8130E0C45DDE4F36
:10EAE00048815981CC52D140242B352B13E0C12EC3
:10EAF000D12CC20ED31E1A828431C9F4DE011396C2
:10EB0000A9019D01D301C201ABBFFC0167917691C0
:10EB1000F901608371832E5F3F4F0296A11DB11DE5
:10EB20004250504089F72C013D01D90128C0F9011C
:10EB3000B301A2018E010D5F1F4F41BDBB27A72F5F
:10EB4000962F852F82BD4F5F5F4F6F4F7F4FF89A93
:10EB500080B5D8018D938D01319779F7C90101975F
:10EB6000A0E0B0E00196A11DB11D480E591E6A1E1D
:10EB70007B1EA3E0B0E0AC0FBD1FA20FB31F1C9221
:10EB800005C080EC8A83A2E0CA2ED12C8BE1D8DAB2
:10EB9000832DD6DA8D2DD4DA8C2DD2DA8EE0D0DA30
:10EBA000F5E1EF2EE324EC24ED244E010894811CC2
:10EBB000911C09C0F40111914F01812FC1DAE126A6
:10EBC0000894C108D108C114D104A1F78E2DB8DA78
:10EBD0003394222009F0DBC080E090E02DC0CC5DB2
:10EBE000DE4F19821882C452D140CE5DDE4F1982A9
:10EBF0001882C252D140332410E0CA5DDE4F198220
:10EC00001882C652D140C25EDE4F188219821A8223
:10EC10001B82CE51D14044245524320120E030E003
:10EC2000A9014BBFF90147915691C25DDE4F59834F
:10EC30004883CE52D140E12E40E050E020E0CE5D4E
:10EC4000DE4F08811981C252D140CC5DDE4FC880B1
:10EC5000D980C452D140CA5DDE4F68817981C652E5
:10EC6000D140DECC8230910509F091C08FEF9FE05A
:10EC7000D2D0803F09F08BC085E762DA80E760DAA6
:10EC800087E65EDA82E75CDA81E65ADA84E658DA09
:10EC900089E656DA8EE654DA87E652DA8DE050DA03
:10ECA0008AE04EDA84E690E0ABDA8DE049DA8AE079
:10ECB00047DA88249924540140E1C42ED12CE12C58
:10ECC000F12CC80CD91CEA1CFB1C82E390E098DAFA
:10ECD000C501B4010FDC8EE092E06FEF70E040E020
:10ECE00051E092D0EEE06E2EE2E07E2E44245524D8
:10ECF000C701B60167DA8301D3018D933D01089402
:10ED0000C11CD11CE11CF11C8BE51ADAF8016081F1
:10ED100070E080E090E083DA8DE512DAD701C60179
:10ED20008F709070A070B0700097A105B10521F4AC
:10ED30008DE006DA8AE004DA0894411C511CF0E008
:10ED40004F16F1E05F06A1F6C501B4014EE052E0B6
:10ED5000E0DB20E031E040E050E0820E931EA41E94
:10ED6000B51E30E0831630EE930633E0A30630E0A4
:10ED7000B30609F0A1CF84E6E3D98DE0E1D98AE0BA
:10ED8000DFD9109200028FEF9FE060E04CD00000CE
:10ED90008091C0008D7F8093C00081E180935700F7
:10EDA000E895EE27FF270994FFCF3BE1E32E21E012
:10EDB00035CC20E033CC26E031CC97FB092E07265A
:10EDC0000AD077FD04D00CD006D000201AF470953C
:10EDD00061957F4F0895F6F7909581959F4F08951F
:10EDE000AA1BBB1B51E107C0AA1FBB1FA617B70771
:10EDF00010F0A61BB70B881F991F5A95A9F780958D
:10EE00009095BC01CD010895DC0101C06D93415086
:10EE10005040E0F70895F999FECF92BD81BDF89A70
:10EE2000992780B50895262FF999FECF1FBA92BD74
:10EE300081BD20BD0FB6F894FA9AF99A0FBE0196DB
:06EE40000895F894FFCFD5
:04EE4600010F020AAC
:040000033000E000E9
:00000001FF
