:1000000002C100002AC1000028C1000026C1000072
:1000100024C1000022C1000020C100001EC1000058
:100020001CC100001AC1000018C1000016C1000068
:1000300014C1000012C1000010C100000EC1000078
:100040000CC100000AC1000008C1000006C1000088
:1000500004C1000002C1000000C100002BC100006B
:10006000FCC0000010C3000052C40000F6C0000035
:10007000F4C00000F2C00000F0C00000EEC00000BC
:10008000ECC00000EAC00000E8C00000E6C00000CC
:100090003AC300007BC40000E0C00000DEC00000E6
:1000A000DCC00000DAC00000D8C00000D6C00000EC
:1000B000D4C00000D2C00000D0C00000CEC00000FC
:1000C000CCC00000CAC00000C8C000005CC3000073
:1000D0009CC40000C2C0000096C30000D5C400004C
:1000E000BCC0000000002100240027002A002D00D1
:1000F0003000330001010000040107010A01000083
:100100002200250028002B002E00310034000201BF
:100110000000050108010B0100002000230026005B
:1001200029002C002F00320000010000030106010D
:10013000090105050505070508080808020202026D
:100140000A0A080804040404010101010101010173
:100150000303030303030303040707070C0C0C0C3E
:100160000C0C0C0C02020202060606060606060627
:100170000B0B0B0B0B0B0B0B0102102020080810B4
:100180002040102040800201020108040201010207
:1001900004081020408080402010080402018004E0
:1001A000020180402010080402010804020101023B
:1001B0000408102040800102040810204080000044
:1001C000090A02080B0C0D070603040100000000D9
:1001D000000000000000000000000000000000001F
:1001E0000000000000000000000011100F000000DF
:1001F00000000000000000000000000000000000FF
:1002000000000000B30611241FBECFEFD1E2DEBF15
:10021000CDBF00E00CBF12E0A0E0B2E0EAE2F1E105
:1002200000E00BBF02C007900D92A234B107D9F7CE
:100230001BBE14E0A2E4B2E001C01D92A33FB107CF
:10024000E1F712E0C6E0D2E003C02297FE0167D7D3
:10025000C430D107D1F7BDD666C7D2CE8BE694E0C5
:1002600060E072E027D78091300261E0D9D168EE7A
:1002700073E080E090E066D08091300260E0D0D101
:1002800068EE73E080E090E05DC00F931F930BE693
:1002900014E0C80140E052EC61E070E034D4C801E1
:1002A0006BE072E007D78091300261E006D11F91C8
:1002B0000F9108951F920F920FB60F9211242F9352
:1002C0003F938F939F93AF93BF93809146029091FA
:1002D0004702A0914802B091490230914A0201962A
:1002E000A11DB11D232F2D5F2D3720F02D57019615
:1002F000A11DB11D20934A028093460290934702AC
:10030000A0934802B0934902809142029091430227
:10031000A0914402B09145020196A11DB11D8093A8
:10032000420290934302A0934402B0934502BF91CE
:10033000AF919F918F913F912F910F900FBE0F9092
:100340001F9018959B01AC017FB7F89480914202F1
:1003500090914302A0914402B091450266B5A89BDA
:1003600005C06F3F19F00196A11DB11D7FBFBA2FC7
:10037000A92F982F8827860F911DA11DB11D62E01E
:10038000880F991FAA1FBB1F6A95D1F7BC012DC00A
:10039000FFB7F8948091420290914302A0914402E9
:1003A000B0914502E6B5A89B05C0EF3F19F0019654
:1003B000A11DB11DFFBFBA2FA92F982F88278E0F1F
:1003C000911DA11DB11DE2E0880F991FAA1FBB1F3F
:1003D000EA95D1F7861B970B885E9340C8F22150AF
:1003E00030404040504068517C4F21153105410557
:1003F000510571F60895789484B5826084BD84B502
:10040000816084BD85B5826085BD85B5816085BD0F
:10041000EEE6F0E0808181608083E1E8F0E0108228
:10042000808182608083808181608083E0E8F0E069
:10043000808181608083E1EBF0E080818460808353
:10044000E0EBF0E0808181608083E1E9F0E0808191
:1004500082608083808181608083E0E9F0E0808138
:1004600081608083E1EAF0E0808182608083808126
:1004700081608083E0EAF0E0808181608083E1E256
:10048000F1E0808182608083808181608083E0E20E
:10049000F1E0808181608083EAE7F0E08081846020
:1004A000808380818260808380818160808380817D
:1004B000806880831092C1000895CF93DF93482F06
:1004C00050E0CA0188589E4FFC0134914E5C5E4F4B
:1004D000FA018491882369F190E0880F991FFC014B
:1004E000EC51FF4FA591B491FC01E250FF4FC59133
:1004F000D491662351F42FB7F8948C91932F909553
:1005000089238C93888189230BC0623061F42FB7D3
:10051000F8948C91932F909589238C938881832BC9
:1005200088832FBF06C09FB7F8948C91832B8C9340
:100530009FBFDF91CF910895893009F449C08A3077
:10054000A0F4843051F1853040F4823079F1833069
:1005500000F5813009F063C026C0873079F188301A
:1005600098F5863009F05BC025C08D3009F442C093
:100570008E3028F48B30B1F18C30C0F52DC0803135
:1005800009F442C0813109F445C08F3009F047C0F9
:1005900037C0809180008F7703C0809180008F7D6D
:1005A00080938000089584B58F7702C084B58F7DD5
:1005B00084BD08958091B0008F7703C08091B00012
:1005C0008F7D8093B0000895809190008F7707C051
:1005D000809190008F7D03C080919000877F8093F1
:1005E000900008958091A0008F7707C08091A000AF
:1005F0008F7D03C08091A000877F8093A000089525
:10060000809120018F7703C0809120018F7D80939E
:100610002001089580912001877F80932001089513
:10062000FF920F931F93F62E482F50E0CA01825479
:100630009E4FFC012491CA0188589E4FFC011491E1
:100640004E5C5E4FFA0104910023C1F0222311F0A9
:10065000822F72DFE02FF0E0EE0FFF1FE250FF4F1E
:10066000A591B4919FB7F894FF2021F48C91109537
:10067000812302C08C91812B8C939FBF1F910F917E
:10068000FF90089508951F920F920FB60F920BB628
:100690000F9211242F933F934F938F939F93EF9338
:1006A000FF938091C00082FD1DC04091C600209143
:1006B0008B0230918C022F5F3F4F2F7330708091EF
:1006C0008D0290918E022817390771F0E0918B020C
:1006D000F0918C02E55BFD4F408330938C022093B8
:1006E0008B0202C08091C600FF91EF919F918F9184
:1006F0004F913F912F910F900BBE0F900FBE0F9017
:100700001F90189508951F920F920FB60F920BB677
:100710000F9211242F933F934F938F939F93EF93B7
:10072000FF938091C80082FD1DC04091CE002091B2
:100730001303309114032F5F3F4F2F73307080915C
:100740001503909116032817390771F0E0911303F0
:10075000F0911403ED52FD4F408330931403209326
:10076000130302C08091CE00FF91EF919F918F9172
:100770004F913F912F910F900BBE0F900FBE0F9096
:100780001F90189508951F920F920FB60F920BB6F7
:100790000F9211242F933F934F938F939F93EF9337
:1007A000FF938091D00082FD1DC04091D600209122
:1007B0009B0330919C032F5F3F4F2F7330708091CC
:1007C0009D0390919E032817390771F0E0919B03D8
:1007D000F0919C03E55AFC4F408330939C03209397
:1007E0009B0302C08091D600FF91EF919F918F9162
:1007F0004F913F912F910F900BBE0F900FBE0F9016
:100800001F90189508951F920F920FB60F920BB676
:100810000F9211242F933F934F938F939F93EF93B6
:10082000FF938091300182FD1DC0409136012091DF
:100830002304309124042F5F3F4F2F733070809139
:100840002504909126042817390771F0E0912304BC
:10085000F0912404ED51FC4F408330932404209305
:10086000230402C080913601FF91EF919F918F91F7
:100870004F913F912F910F900BBE0F900FBE0F9095
:100880001F901895E0917704F0917804E05CFF4F99
:100890008191919120813181821B930B8F73907094
:1008A000892B09F0EFDEE0919904F0919A04E05C65
:1008B000FF4F8191919120813181821B930B8F7326
:1008C0009070892B09F01EDFE091BB04F091BC040D
:1008D000E05CFF4F8191919120813181821B930BCC
:1008E0008F739070892B09F04DDFE091DD04F0915A
:1008F000DE04E05CFF4F8191919120813181821B68
:10090000930B8F739070892B09F07CCF08951F9201
:100910000F920FB60F920BB60F9211242F933F93A5
:100920008F939F93EF93FF932091CF023091D0024A
:100930008091D1029091D2022817390731F4809129
:10094000C1008F7D8093C10014C0E091D102F0916D
:10095000D202E157FD4F20818091D1029091D202C5
:1009600001968F7390709093D2028093D10220935E
:10097000C600FF91EF919F918F913F912F910F9022
:100980000BBE0F900FBE0F901F9018951F920F92E5
:100990000FB60F920BB60F9211242F933F938F93A4
:1009A0009F93EF93FF9320915703309158038091C9
:1009B000590390915A032817390731F48091C900DF
:1009C0008F7D8093C90014C0E0915903F0915A03C0
:1009D000E95EFC4F20818091590390915A03019662
:1009E0008F73907090935A03809359032093CE0095
:1009F000FF91EF919F918F913F912F910F900BBE9F
:100A00000F900FBE0F901F9018951F920F920FB668
:100A10000F920BB60F9211242F933F938F939F93B6
:100A2000EF93FF932091DF033091E0038091E10386
:100A30009091E2032817390731F48091D1008F7D1E
:100A40008093D10014C0E091E103F091E203E156FC
:100A5000FC4F20818091E1039091E20301968F7316
:100A600090709093E2038093E1032093D600FF916E
:100A7000EF919F918F913F912F910F900BBE0F900F
:100A80000FBE0F901F9018951F920F920FB60F92E6
:100A90000BB60F9211242F933F938F939F93EF9355
:100AA000FF932091670430916804809169049091CC
:100AB0006A042817390731F4809131018F7D8093C2
:100AC000310114C0E0916904F0916A04E95DFB4FC3
:100AD00020818091690490916A0401968F739070CF
:100AE00090936A048093690420933601FF91EF91FB
:100AF0009F918F913F912F910F900BBE0F900FBE42
:100B00000F901F901895AF92BF92DF92EF92FF92D5
:100B10000F931F93CF93DF93EC017A018B01DD24B8
:100B2000403081EE580780E0680780E0780711F0D8
:100B3000DD24D39491E0A92EB12CEC89FD89DD2030
:100B400069F0C50108A002C0880F991F0A94E2F756
:100B5000808360E079E08DE390E005C0108260E87A
:100B600074E88EE190E0A8019701B5D221503040A1
:100B700040405040569547953795279580E1203065
:100B8000380720F0DD2011F0DD24D7CFE889F9897E
:100B90003083EA89FB89208319A2EE89FF8940818D
:100BA00021E030E0C9010C8C02C0880F991F0A9423
:100BB000E2F7482B4083EE89FF894081C9010D8C03
:100BC00002C0880F991F0A94E2F7482B4083EE89F0
:100BD000FF894081C9010E8C02C0880F991F0A94B9
:100BE000E2F7482B4083EE89FF8980810F8C02C099
:100BF000220F331F0A94E2F7209528232083DF91E8
:100C0000CF911F910F91FF90EF90DF90BF90AF9029
:100C10000895DC011C96ED91FC911D97E05CFF4F5F
:100C20002191319180819181281B390B2F73307074
:100C3000C9010895DC011C96ED91FC911D97E05CC3
:100C4000FF4F20813181E054F040DF01AE5BBF4FA8
:100C50008D919C9111972817390719F42FEF3FEFC9
:100C600007C08D919C91E80FF91F8081282F30E0FB
:100C7000C9010895DC011C96ED91FC911D97E05C83
:100C8000FF4F20813181E054F040DF01AE5BBF4F68
:100C90008D919C9111972817390719F42FEF3FEF89
:100CA00010C08D919C911197E80FF91F20818D91B3
:100CB0009C91119701968F73907011969C938E93CF
:100CC00030E0C9010895DC0191968C9191978823B9
:100CD00039F05496ED91FC915597808186FFF9CFBC
:100CE00091961C920895CF93DF93EC01EE85FF85DA
:100CF000E05CFF4F20813181E054F0402F5F3F4F97
:100D00002F733070DF01AE5BBF4F8D919C911197B7
:100D100028173907D1F3E05CFF4F80819181E054BF
:100D2000F040E80FF91F6083EE85FF85E05CFF4F20
:100D300031832083EE89FF89208181E090E00F8C50
:100D400002C0880F991F0A94E2F7282B208381E0C4
:100D500089A3EC89FD8980818064808381E090E0B3
:100D6000DF91CF9108951F9310926E0410926D043D
:100D700028EE33E040E050E020936F04309370049D
:100D8000409371045093720466E372E070936C04B4
:100D900060936B048BE492E09093780480937704E3
:100DA0008FE892E090937A048093790485EC90E048
:100DB00090937C0480937B0484EC90E090937E0479
:100DC00080937D0480EC90E09093800480937F0476
:100DD00081EC90E0909382048093810482EC90E017
:100DE000909384048093830486EC90E0909386042F
:100DF0008093850414E010938704B3E0B0938804D3
:100E0000A7E0A0938904F5E0F0938A04E1E0E09381
:100E10008B041092900410928F04209391043093CD
:100E20009204409393045093940470938E046093BF
:100E30008D0483ED92E090939A048093990487E166
:100E400093E090939C0480939B048DEC90E09093AE
:100E50009E0480939D048CEC90E09093A00480937A
:100E60009F0488EC90E09093A2048093A10489EC05
:100E700090E09093A4048093A3048AEC90E0909374
:100E8000A6048093A5048EEC90E09093A804809330
:100E9000A7041093A904B093AA04A093AB04F09301
:100EA000AC04E093AD041092B2041092B10420930C
:100EB000B3043093B4044093B5045093B6047093D4
:100EC000B0046093AF048BE593E09093BC048093EF
:100ED000BB048FE993E09093BE048093BD0485ED3D
:100EE00090E09093C0048093BF0484ED90E09093D1
:100EF000C2048093C10480ED90E09093C404809379
:100F0000C30481ED90E09093C6048093C50482ED04
:100F100090E09093C8048093C70486ED90E090938E
:100F2000CA048093C9041093CB04B093CC04A0935B
:100F3000CD04F093CE04E093CF041092D404109229
:100F4000D3042093D5043093D6044093D704509310
:100F5000D8047093D2046093D10483EE93E090930D
:100F6000DE048093DD0487E294E09093E0048093B4
:100F7000DF0485E391E09093E2048093E10484E34D
:100F800091E09093E4048093E30480E391E09093F4
:100F9000E6048093E50481E391E09093E804809374
:100FA000E70482E391E09093EA048093E90486E306
:100FB00091E09093EC048093EB041093ED04B093D4
:100FC000EE04A093EF04F093F004E093F1041F917A
:100FD0000895CF93DF930FDA58D9C2E4D4E03ED915
:100FE0002097E9F34FDCFBCFCF92DF92EF92FF9295
:100FF0000F931F93CF93DF937C016B018A01C0E0B5
:10100000D0E00FC0D6016D916D01D701ED91FC913B
:101010000190F081E02DC7011995C80FD91F01502B
:1010200010400115110571F7CE01DF91CF911F918D
:101030000F91FF90EF90DF90CF900895EF92FF9285
:101040000F931F938C01DC01ED91FC910190F081D5
:10105000E02D6DE019957C01D801ED91FC91019096
:10106000F081E02DC8016AE019959C012E0D3F1D0D
:10107000C9011F910F91FF90EF900895CF93DF93D7
:10108000EC016115710519F420E030E00FC0DB01BF
:101090000D900020E9F71197A61BB70BE881F981A5
:1010A0000280F381E02DAD0119959C01C901DF910A
:1010B000CF910895EF92FF920F931F937C01DEDF93
:1010C0008C01C701BBDF080F191FC8011F910F91C9
:1010D000FF90EF900895A1E21A2EAA1BBB1BFD0101
:1010E0000DC0AA1FBB1FEE1FFF1FA217B307E40707
:1010F000F50720F0A21BB30BE40BF50B661F771F5F
:10110000881F991F1A9469F760957095809590953E
:101110009B01AC01BD01CF010895EE0FFF1F0590AB
:0A112000F491E02D1994F894FFCF2C
:10112A00626C696E6B206C6F6F700057652061721C
:10113A0065206E6F77207374617274696E672074AC
:10114A00686520626C696E6B696E672061707000F9
:10115A000D00000000007306F40709063A061A0695
:02116A0063061A
:00000001FF
